:020000040000fa
:080000000002040000000000f2
:020000040000fa
:100008009402000094020000940200009402000090
:100018009402000094020000940200009402000080
:100028009402000094020000940200009402000070
:100038009402000094020000940200009402000060
:10004800f8050000940200009402000094020000e9
:100058009402000094020000940200009402000040
:100068009402000094020000940200009402000030
:100078009402000094020000940200009402000020
:100088009402000094020000940200009402000010
:100098009402000094020000940200009402000000
:1000a80094020000940200009402000094020000f0
:1000b80094020000940200009402000094020000e0
:1000c80094020000940200009402000094020000d0
:1000d80094020000940200009402000094020000c0
:1000e80094020000940200009402000094020000b0
:1000f80094020000940200009402000094020000a0
:10010800940200002a0600009402000094020000f5
:10011800940200009402000094020000940200007f
:10012800940200009402000094020000940200006f
:10013800940200009402000094020000940200005f
:10014800940200009402000094020000940200004f
:10015800940200009402000094020000940200003f
:10016800940200009402000094020000940200002f
:10017800940200009402000094020000940200001f
:10018800940200009402000094020000940200000f
:1001980094020000940200009402000094020000ff
:1001a80094020000940200009402000094020000ef
:1001b80094020000940200009402000094020000df
:1001c80094020000940200009402000094020000cf
:1001d80094020000940200009402000094020000bf
:1001e80094020000940200009402000094020000af
:0801f8009402000094020000d3
:020000040000fa
:10020800940200009402000094020000940200008e
:10021800940200009402000094020000940200007e
:10022800940200009402000094020000940200006e
:10023800940200009402000094020000940200005e
:10024800f8050000940200009402000094020000e7
:10025800940200009402000094020000940200003e
:10026800940200009402000094020000940200002e
:10027800940200009402000094020000940200001e
:10028800940200009402000094020000940200000e
:1002980094020000940200009402000094020000fe
:1002a80094020000940200009402000094020000ee
:1002b80094020000940200009402000094020000de
:1002c80094020000940200009402000094020000ce
:1002d80094020000940200009402000094020000be
:1002e80094020000940200009402000094020000ae
:1002f800940200009402000094020000940200009e
:10030800940200002a0600009402000094020000f3
:10031800940200009402000094020000940200007d
:10032800940200009402000094020000940200006d
:10033800940200009402000094020000940200005d
:10034800940200009402000094020000940200004d
:10035800940200009402000094020000940200003d
:10036800940200009402000094020000940200002d
:10037800940200009402000094020000940200001d
:10038800940200009402000094020000940200000d
:1003980094020000940200009402000094020000fd
:1003a80094020000940200009402000094020000ed
:1003b80094020000940200009402000094020000dd
:1003c80094020000940200009402000094020000cd
:1003d80094020000940200009402000094020000bd
:1003e80094020000940200009402000094020000ad
:0803f8009402000094020000d1
:020000040000fa
:100400002f8020000e7f24000e01880000000000d5
:1004100000012000200288000c000700a0702000ce
:100420000100200011000700000020000000e00093
:10043000020032000000020000000000720502000d
:10044000000000000040da000000fe004440a90067
:10045000000020000000e000030032000000200047
:10046000a00188004440a800000006009101880017
:10047000800078000000eb0015003700e2804000ab
:1004800032a0b4009101ba00e280400032a0b40072
:100490009102ba00e280400032a0b4000002eb00fa
:1004a000472bde00f507b200602ce10004003a00a3
:1004b0000059eb008301e900fdff3e000400370016
:1004c0006128e100010032000082eb000400070017
:1004d0001101ba000200e000e8ff3a000000060047
:1004e0003159ba008301e9000c0032002159ba00e9
:1004f0008301e900080032000400e00003003a0034
:10050000e280400032a0b400f5ff370011d9ba00f4
:100510008301e900faff3a008100e800e180400031
:1005200032a0b400000006000040da000000fe0027
:10053000839f68000100e00002003d0060001000a1
:10054000e08018000300e00002003d00600111009f
:10055000e0811900050007004f00e00002003b00a9
:1005600060001000e0801800000006006022b80063
:10057000060220000000d0008180d2000482d20058
:100580008582d2000000a0000202520083825a003d
:10059000030031000202420083824a000000a100f1
:0c05a0000603e900f3ff3a00000006002b
:020000040000fa
:1005ac000000fa00c1e1a900ca82a800040e800074
:1005bc000400a1000410a100040e8800040e8000a9
:1005cc000420a1000430a100040e8800040e800059
:1005dc000440a1000450a1000460a1000470a1001b
:1005ec00040e8800c901a800c921a800740b2000c2
:1005fc00240e88000002eb00b40e88000002eb0011
:10060c00c40e8800c801a900c881a900c821a9008e
:10061c00c8a1a900c1e1a8000080fa0000000600f2
:10062c000c00fa003007980041079800224f980000
:10063c002e4a9000e14f520065003a003e029000b5
:10064c00e00f520005003a00c801a900c881a900ba
:10065c000002eb00140798002a0037003e029000bd
:10066c00e00f520010003400c801a800c881a90096
:10067c00be02900004172000848f52000500340045
:10068c00041720001407980044c0b300044f7800ee
:10069c001c0037003e029000140798000042eb004b
:1006ac00044f7800170037003e029000e00f520014
:1006bc0012003d00c801a900c881a8003e029000ac
:1006cc008402ea0004172000848f520005003400d5
:1006dc00041720001407980054c0b300044f78008e
:1006ec00080037003e0290000402ea00140798004c
:1006fc000042eb00044f780002003700d4c9b3006d
:10070c00044f78004e029000e00f520005003a00b2
:10071c00c821a900c8a1a9000002eb002407980079
:10072c00d90037004e029000e00f52001000340048
:10073c00c821a800c8a1a900ce029000041720006f
:10074c00848f520005003400041720002407980001
:10075c0064c0b300044f7800cb0037004e02900009
:10076c00240798000042eb00044f7800c6003700c5
:10077c004e029000e00f520012003d00c821a9006b
:10078c00c8a1a8004e0290008402ea0004172000c1
:10079c00848f5200050034000417200024079800b1
:1007ac0074c0b300044f7800b70037004e029000bd
:1007bc000402ea00240798000042eb00044f780082
:1007cc00b1003700d4c9b300044f7800ae00370035
:1007dc002e4a9000e24f5200a9003a003e029000cf
:1007ec00e00f520005003a00c801a900c881a90019
:1007fc000002eb00140798004c0037003e029000fa
:10080c00e00f520021003400c801a800c881a900e3
:10081c00be029000843e2000848f520005003400fc
:10082c00041720001407980044c0b300044f78004c
:10083c003e0037003e029000cfa2de0006172000db
:10084c0006abb900060378006020b900800378007d
:10085c00070343008402780004172000042ab80020
:10086c000503430086027800823e2000030020002e
:10087c000400be002bff07000002be001407980006
:10088c000042eb00044f7800280037003e02900035
:10089c00e00f520023003d00c801a900c881a80048
:1008ac003e0290008402ea00843e2000848f5200b5
:1008bc0005003400041720001407980054c0b3003e
:1008cc00044f7800190037003e029000cfa2de00e2
:1008dc0006e92f0006abb900060378008083eb0015
:1008ec0007a0b90080037800070343008402780056
:1008fc0004e92f00042ab80005034300860278009f
:10090c00823e2000030020000400be0005ff07000b
:10091c000002be00140798000042eb00044f780060
:10092c0002003700d4c9b300044f78004e02900087
:10093c00e00f520005003a00c821a900c8a1a90087
:10094c000002eb00240798004f0037004e02900085
:10095c00e00f520021003400c821a800c8a1a90052
:10096c00ce029000843e2000848f5200050034009b
:10097c00041720002407980064c0b300044f7800cb
:10098c00410037004e029000cfa2de000617200077
:10099c0006abb900060378006020b900800378002c
:1009ac00070343008402780004172000042ab800cf
:1009bc000503430086027800823e200003002000dd
:1009cc000400be00d7fe07000002be0024079800fa
:1009dc000042eb00044f78002b0037004e029000d1
:1009ec00e00f520023003d00c821a900c8a1a800b7
:1009fc004e0290008402ea00843e2000848f520054
:100a0c0005003400041720002407980074c0b300bc
:100a1c00044f78001c0037004e029000cfa2de007d
:100a2c0006e92f0006abb900060378008083eb00c3
:100a3c0007a0b90080037800070343008402780004
:100a4c0004e92f00042ab80005034300860278004d
:100a5c00823e2000030020000400be00b1fe07000f
:100a6c000002be00240798000042eb00044f7800ff
:100a7c0005003700d4c9b300044f780002003700da
:100a8c0034c0b300044f78001e427800e34f52008c
:100a9c00040032001e029000b40e88002e0290005a
:100aac00c40e88001e427800044078000080fa00d2
:100abc00000006000000fa00c801a900c881a900c6
:100acc000002eb00b40e88000002eb00c40e88009c
:100adc000080fa00000006000000fa00c5000700c4
:100aec0093000700aefe07001000200082000700f4
:100afc0022c0b3004106200040062000c8fe0700bb
:100b0c00800c20006d00070022c0b300a10f200054
:100b1c00a00f2000c2fe0700800c20006700070019
:100b2c0022c0b3000119200000192000bcfe0700f0
:100b3c00800c20006100070022c0b300612220005d
:100b4c0060222000b6fe0700800c20005b0007002e
:100b5c0022c0b300e12e2000e02e2000b0fe0700e2
:100b6c00800c20005500070022c0b300813e2000fd
:100b7c00803e2000aafe0700c02b20004f0007007b
:100b8c0022c0b300813e2000e02e2000a4fe07000e
:100b9c00803e20004900070022c0b300e12e200057
:100bac00803e20009efe0700803e20004300070090
:100bbc0022c0b300813e2000803e200098fe07003a
:100bcc0080bb20003d000700baff070014c0b30033
:100bdc000400780000e8b700800c200065000700d6
:100bec00ffff37003600f800809fbe00829fbe00da
:100bfc00849fbe00869fbe000000fa000480200087
:100c0c0014427800e14f520003003a001a0007002a
:100c1c008500a900050037000480200014427800ec
:100c2c00e24f520001003a008500a9000080fa0052
:100c3c004f03be004f02be004f01be004f00be006e
:100c4c003600f900004006000000fa008b20a900d5
:100c5c000080fa00004006000000fa00c8a2a900bb
:100c6c000080fa00000006000000fa00c8a2a800ec
:100c7c000080fa00000006000000fa004416800014
:100c8c004522de006142620015c0b30004c252006e
:100c9c00614262000482fb00610262004522dd00b9
:100cac0046168000f5fd2f00850263000482720059
:100cbc00441688000080fa00000006000200fa00ca
:100ccc00000f780024c0b3000400780000e8b700df
:100cdc001e0078002700070000000000250480009b
:100cec000410200004826200e00f5200fbff32006f
:100cfc000080fa00000006000400fa0010079800bb
:100d0c000002eb00040f780003003700803e200047
:100d1c00eaff07001e0fe8001e0290009e027800fa
:100d2c00848f5200f9ff39000080fa0000000600a1
:100d3c000000fa0013e1a90011e1a9001061a8005c
:100d4c001021a90010c1a900840880000440a10052
:100d5c000450a10084088800440580000400a00011
:100d6c000410a1000420a100440588000080fa00b2
:100d7c00000006000600fa00200798008500a90074
:100d8c009500a8000002eb00540888000002eb005c
:100d9c00340888002e0290000500200056e6200042
:100dac0006abb900060378006020b9008003780018
:100dbc00070343008402780054e62000042ab8009c
:100dcc000503430086027800048fbe001e02be009d
:100ddc00402ade0005002000040278007408880018
:100dec001e0278006408880011e1a8000080fa0057
:100dfc00000006000000fa00f40c200044168800e5
:080e0c000080fa00000006005e
:020000040000fa
:100e140000080000020000000000000000000000c4
:020000040000fa
:0200000401f009
:04000000cf0000002d
:020000040000fa
:0200000401f009
:04000400cf00000029
:020000040000fa
:0200000401f009
:0400080007000000ed
:020000040000fa
:0200000401f009
:04000c008000000070
:020000040000fa
:0200000401f009
:04001000a700000045
:020000040000fa
:0200000401f009
:040014005f00000089
:020000040000fa
:0200000401f009
:04001800f7000000ed
:020000040000fa
:0200000401f009
:04001c00dfff000002
:00000001FF
