:020000040000fa
:080000000002040000000000f2
:020000040000fa
:1000080090020000900200009002000090020000a0
:100018009002000090020000900200009002000090
:100028009002000090020000900200009002000080
:100038009002000090020000900200009002000070
:10004800800700009002000090020000900200006b
:100058009002000090020000900200009002000050
:100068009002000090020000900200009002000040
:100078009002000090020000900200009002000030
:100088009002000090020000900200009002000020
:100098009002000090020000900200009002000010
:1000a8009002000090020000900200009002000000
:1000b80090020000900200009002000090020000f0
:1000c80090020000900200009002000090020000e0
:1000d80090020000900200009002000090020000d0
:1000e80090020000900200009002000090020000c0
:1000f80090020000900200009002000090020000b0
:1001080090020000c4070000cc0700009002000025
:10011800900200009002000090020000900200008f
:10012800900200009002000090020000900200007f
:10013800900200009002000090020000900200006f
:10014800900200009002000090020000fc070000ee
:10015800900200009002000090020000900200004f
:10016800900200009002000090020000900200003f
:10017800900200009002000090020000900200002f
:10018800900200009002000090020000900200001f
:10019800900200009002000090020000900200000f
:1001a80090020000900200009002000090020000ff
:1001b80090020000900200009002000090020000ef
:1001c80090020000900200009002000090020000df
:1001d80090020000900200009002000090020000cf
:1001e80090020000900200009002000090020000bf
:0801f8009002000090020000db
:020000040000fa
:10020800900200009002000090020000900200009e
:10021800900200009002000090020000900200008e
:10022800900200009002000090020000900200007e
:10023800900200009002000090020000900200006e
:100248008007000090020000900200009002000069
:10025800900200009002000090020000900200004e
:10026800900200009002000090020000900200003e
:10027800900200009002000090020000900200002e
:10028800900200009002000090020000900200001e
:10029800900200009002000090020000900200000e
:1002a80090020000900200009002000090020000fe
:1002b80090020000900200009002000090020000ee
:1002c80090020000900200009002000090020000de
:1002d80090020000900200009002000090020000ce
:1002e80090020000900200009002000090020000be
:1002f80090020000900200009002000090020000ae
:1003080090020000c4070000cc0700009002000023
:10031800900200009002000090020000900200008d
:10032800900200009002000090020000900200007d
:10033800900200009002000090020000900200006d
:10034800900200009002000090020000fc070000ec
:10035800900200009002000090020000900200004d
:10036800900200009002000090020000900200003d
:10037800900200009002000090020000900200002d
:10038800900200009002000090020000900200001d
:10039800900200009002000090020000900200000d
:1003a80090020000900200009002000090020000fd
:1003b80090020000900200009002000090020000ed
:1003c80090020000900200009002000090020000dd
:1003d80090020000900200009002000090020000cd
:1003e80090020000900200009002000090020000bd
:0803f8009002000090020000d9
:020000040000fa
:100400002f8320000e7f24000e01880000000000d2
:100410000c0007008091200001002000110007005f
:10042000000020000000e000020032000000020096
:100430000000000020070200000000000040da0079
:100440000000fe004440a900000020000000e00081
:100450000300320000002000a00188004440a800f2
:100460000000060091018800800078000000eb0089
:1004700015003700e280400032a0b4009101ba00bc
:10048000e280400032a0b4009102ba00e280400055
:1004900032a0b4000002eb00472bde00f507b200eb
:1004a000602ce10004003a000059eb008301e900f0
:1004b000fdff3e00040037006128e100010032002a
:1004c0000082eb00040007001101ba000200e00006
:1004d000e8ff3a00000006003159ba008301e90044
:1004e0000c0032002159ba008301e90008003200f3
:1004f0000400e00003003a00e280400032a0b400b3
:10050000f5ff370011d9ba008301e900faff3a007c
:100510008100e800e180400032a0b4000000060045
:100520000040da000000fe00839f68000100e00048
:1005300002003d0060001000e08018000300e000b1
:1005400002003d0060011100e08119000500070074
:100550004f00e00002003b0060001000e080180047
:10056000000006006022b800060220000000d00053
:100570008180d2000482d2008582d2000000a000d7
:100580000202520083825a0003003100020242003c
:1005900083824a000000a1000603e900f3ff3a004d
:0405a0000000060051
:020000040000fa
:1005a4000000fa00c1e1a900ca82a800010e80007f
:1005b400c0ff2f0000806000000e8800010e800044
:1005c40030ff2f0000806000000e8800010e8000c4
:1005d400f0f02f0000806000000e8800c901a80020
:1005e400c921a800700b2000200e88000000eb0039
:1005f400b00e88000000eb00c00e8800c801a900fe
:10060400c881a900c821a900c8a1a900c1e1a80006
:100614000080fa00000006000c00fa003007980081
:1006240041079800224f98002e489000e14f500057
:1006340065003a003e009000e00f500005003a00cb
:10064400c801a900c881a9000000eb0010079800a8
:100654002a0037003e009000e00f500010003400e4
:10066400c801a800c881a900be009000001720009e
:10067400808f5000050034000017200010079800f8
:1006840040c0b300004f78001c0037003e009000cb
:10069400100798000040eb00004f78001700370067
:1006a4003e009000e00f500012003d00c801a90078
:1006b400c881a8003e0090008000ea0000172000d6
:1006c400808f5000050034000017200010079800a8
:1006d40050c0b300004f7800080037003e0090007f
:1006e4000000ea00100798000040eb00004f78007b
:1006f40002003700d0c9b300004f78004e009000cc
:10070400e00f500005003a00c821a900c8a1a900c3
:100714000000eb0020079800cd0037004e00900049
:10072400e00f500010003400c821a800c8a1a9009f
:10073400ce00900000172000808f50000500340088
:10074400001720002007980060c0b300004f780015
:10075400bf0037004e009000200798000040eb00d7
:10076400004f7800ba0037004e009000e00f5000b0
:1007740012003d00c821a900c8a1a8004e009000a5
:100784008000ea0000172000808f5000050034002c
:10079400001720002007980070c0b300004f7800b5
:1007a400ab0037004e0090000000ea0020079800dc
:1007b4000040eb00004f7800a5003700d0c9b3001b
:1007c400004f7800a20037002e489000e24f5000fe
:1007d4009d003a003e009000e00f500005003a00f2
:1007e400c801a900c881a9000000eb001007980007
:1007f400460037003e009000e00f50001e00340019
:10080400c801a800c881a900be009000803e200055
:10081400808f500005003400001720001007980056
:1008240040c0b300004f7800380037003e0090000d
:10083400cf80de00021720000289b900020178008f
:100844006002b9008401780003014100031720000d
:100854000300b8000101410082007800823e2000bc
:10086400030020002fff0700100798000040eb0052
:10087400004f7800250037003e009000e00f500044
:1008840020003d00c801a900c881a8003e009000d6
:100894008000ea00803e2000808f50000500340074
:1008a400001720001007980050c0b300004f7800d4
:1008b400160037003e009000cf80de0002e92f00d2
:1008c4000289b900020178008081eb000382b9003b
:1008d400840178000301410003e92f000300b800fc
:1008e4000101410082007800823e200003002000c4
:1008f4000cff0700100798000040eb00004f780041
:1009040002003700d0c9b300004f78004e009000b9
:10091400e00f500005003a00c821a900c8a1a900b1
:100924000000eb0020079800490037004e009000bb
:10093400e00f50001e003400c821a800c8a1a9007f
:10094400ce009000803e2000808f500005003400cf
:10095400001720002007980060c0b300004f780003
:100964003b0037004e009000cf80de0002172000cd
:100974000289b900020178006002b900840178009c
:1009840003014100031720000300b80001014100e6
:1009940082007800823e200003002000e1fe070070
:1009a400200798000040eb00004f78002800370033
:1009b4004e009000e00f500020003d00c821a90027
:1009c400c8a1a8004e0090008000ea00803e2000ec
:1009d400808f500005003400001720002007980085
:1009e40070c0b300004f7800190037004e0090002b
:1009f400cf80de0002e92f000289b90002017800ed
:100a04008081eb000382b900840178000301410076
:100a140003e92f000300b8000101410082007800bf
:100a2400823e200003002000befe0700200798003d
:100a34000040eb00004f780005003700d0c9b30038
:100a4400004f78000200370030c0b300004f780038
:100a54001e407800e34f5000040032001e00900056
:100a6400b00e88002e009000c00e88001e40780052
:100a74000080fa00000006000000fa00c801a90086
:100a8400c881a900c821a900c8a1a9000000eb00e1
:100a9400b00e88000000eb00c00e88000080fa0051
:100aa400000006000600fa00889fbe007040800027
:100ab4008140800061004000e08048007040880070
:100ac4008140880032408000434080001040800014
:100ad400214080000000510081805900025a20000a
:100ae4000289b900020178006002b900840178002b
:100af40003014100035a20000300b8000101410032
:100b040082007800a20f8000030020000001410051
:100b140081814900200f8000010020000000510065
:100b2400818059007509b900020178006002b9009a
:100b34008401780003014100530120000300b80040
:100b44000101410082007800008fbe0072408000e5
:100b540083408000703e200001002000800f51007f
:100b6400818f59003b0036006000b8007040880057
:100b740081408800a14080009040800000805000a7
:100b84006103b90050418000614180003e01500082
:100b9400ae8158000200be006609b9000202780066
:100ba4006001b900020178000202420062002000e4
:100bb4000201b8000302420084017800544180001d
:100bc4006541800070418000814180000000520036
:100bd40081805a00650ab900040278006004b900f3
:100be4008802780005024200550020000500b80084
:100bf4000102420084007800000051008180590005
:100c040006004000878048008100d1000080d300a6
:100c1400200798002e0090008000ea0020002000a9
:100c240080017800110009008300d80090408800fa
:100c3400ae0090002000200000017800110009009f
:100c44008200d800a04088001e00be0070418800c9
:100c540081418800a14080009040800022c0b30000
:100c64006dfe07001e01be00f240880003418800ab
:100c7400f2408000034180005041800061418000c7
:100c8400800f5100818f590002003900d0c0b30099
:100c94000100370010c0b3004f04be000080fa000a
:100ca400000006000000fa00010f8000f08f2f0002
:100cb40000806000000f8800810f8000f08f2f00fb
:100cc40000806000800f8800e134800000fe2f0067
:100cd40000806000a000b300e0348800e1348000ac
:100ce400f00f2e008080600000b0200000807000b3
:100cf400e03488000135800000fe2f000080600091
:100d04007000b3000035880001358000f00f2e001c
:100d14008080600000602000008070000035880042
:100d2400110f8000f0f82f00808060000003200085
:100d340000807000100f8800910f8000f0f82f00e1
:100d4400808060000003200000807000900f880005
:100d5400e301a800f301a800e2e1a800f2e1a80081
:100d6400f0592000300f8800f0592000b00f88009f
:100d74000000eb00200f88000000eb00a00f8800ab
:100d84009b40a8009d60a800010f80000070200017
:100d940000807000000f8800810f80000070200028
:100da40000807000800f88000080fa0000000600b8
:100db4000000fa006000b80010408800214088005c
:100dc4006000b80030408800414088000080fa008c
:100dd400000006000400fa00000f780011079800d4
:100de4001e007800e00f500001003d000000ea0002
:100df400800078001e009000e00f500001003d00cc
:100e04000000ea00808f5000090035001e009000a9
:100e14001e001000e90f5000030034001e00900073
:100e24006a004000030037001e007800010037000c
:100e34000000eb000080fa00000006000000fa0049
:100e4400f3000700daff0700c1000700d4fd070024
:100e540094ff07000040eb000ae8b7000040eb00f5
:100e64000be8b700903e200001002000704088008d
:100e7400814088000000eb00904088000000eb00f7
:100e8400a04088000040eb000ce8b7006000b80008
:100e94007041880081418800100020009400070000
:100ea40000f22b002100200050418800614188009d
:100eb40010c0b3000ce8b7000b003700f9fe0700c0
:100ec400ed4f500008003a000cc8bf00e04f50003e
:100ed400050032000040eb000ce8b700e6fe070016
:100ee40010c0b3000be8b7000bc8bf00e04f5000c0
:100ef400f2ff3200e0fe0700ffff37003600f80083
:100f0400809fbe00829fbe00849fbe00869fbe005d
:100f14000000fa0000c8bf00e24f500003003a008e
:100f2400540007008500a9000f00370000c8bf0067
:100f3400e34f500004003a000040eb000ae8b70019
:100f44008500a9000800370000c8bf00e44f500026
:100f540004003a0010c0b3000be8b7008500a900f4
:100f6400010037008500a9000080fa004f03be008d
:100f74004f02be004f01be004f00be003600f90014
:100f8400004006000000fa008b20a9000080fa004f
:100f940000400600809fbe000000fa008b40a900bc
:100fa400010f80000080200000806000e00f5000ee
:100fb40007003200104080002140800061004000a2
:100fc400e080480010408800214088000600370077
:100fd400104080002140800061005000e0805800f3
:100fe40010408800214088000080fa004f00be00b5
:100ff40000400600809fbe000000fa008d60a9003a
:10100400810f80000080200000806000e00f50000d
:101014000700320030408000414080006100400001
:10102400e0804800304088004140880006003700d6
:10103400304080004140800061005000e080580052
:1010440030408800414088000080fa004f00be0014
:10105400004006000000fa00c8a2a9000080fa00bf
:10106400000006000000fa00c8a2a8000080fa00f0
:10107400000006000000fa00401680004500de0073
:101084006140600011c0b30000c0500061406000c6
:101094000080fb00610060004500dd004216800016
:1010a400f1fd2f008100610000807000401688006f
:1010b4000080fa00000006000200fa00000f780029
:1010c40010c0b3000ae8b70030c0b30000e8b700ae
:1010d4001e0078002f000700000000000ac8bf00af
:1010e400e14f5000fdff32000080fa0000000600ce
:1010f4000400fa00100798000000eb00000f7800cd
:1011040003003700803e2000ebff07001e0fe800bd
:101114001e0090009e007800808f5000f9ff390077
:101124000080fa00000006000200fa00000f7800b8
:101134001e007800e00f500002003d001e00ea008f
:10114400010037001e0078000080fa00000006004d
:101154000000fa0013e1a90011e1a9001061a80040
:101164001021a90010c1a90081088000f0fc2f0003
:1011740000806000800888004105800080ff2f0007
:10118400008060000000a000400588000080fa0094
:10119400000006000600fa00200798008500a90058
:1011a4009500a8000000eb00500888000000eb0048
:1011b400300888002e0090000100200052e6200034
:1011c4000289b900020178006002b9008401780044
:1011d4000301410053e620000300b800010141006f
:1011e40082007800008fbe001e00be004008de00b2
:1011f4000100200000007800700888001e007800bc
:101204006008880011e1a8000080fa0000000600d0
:101214000000fa00f00c200040168800c942a80023
:0c122400c962a8000080fa00000006006b
:020000040000fa
:101230000008000032000000000000000000000074
:020000040000fa
:0200000401f009
:04000000cf0000002d
:020000040000fa
:0200000401f009
:04000400cf00000029
:020000040000fa
:0200000401f009
:0400080007000000ed
:020000040000fa
:0200000401f009
:04000c008000000070
:020000040000fa
:0200000401f009
:04001000a700000045
:020000040000fa
:0200000401f009
:040014005f00000089
:020000040000fa
:0200000401f009
:04001800f7000000ed
:020000040000fa
:0200000401f009
:04001c00dfff000002
:00000001FF
