:020000040000fa
:080000000002040000000000f2
:020000040000fa
:100008009402000094020000940200009402000090
:100018009402000094020000940200009402000080
:100028009402000094020000940200009402000070
:100038009402000094020000940200009402000060
:10004800b60200009402000094020000940200002e
:100058009402000094020000940200009402000040
:100068009402000094020000940200009402000030
:100078009402000094020000940200009402000020
:100088009402000094020000940200009402000010
:100098009402000094020000940200009402000000
:1000a80094020000940200009402000094020000f0
:1000b80094020000940200009402000094020000e0
:1000c80094020000940200009402000094020000d0
:1000d80094020000940200009402000094020000c0
:1000e80094020000940200009402000094020000b0
:1000f80094020000940200009402000094020000a0
:1001080094020000d402000094020000940200004f
:10011800940200009402000094020000940200007f
:10012800940200009402000094020000940200006f
:10013800940200009402000094020000940200005f
:10014800940200009402000094020000940200004f
:10015800940200009402000094020000940200003f
:10016800940200009402000094020000940200002f
:10017800940200009402000094020000940200001f
:10018800940200009402000094020000940200000f
:1001980094020000940200009402000094020000ff
:1001a80094020000940200009402000094020000ef
:1001b80094020000940200009402000094020000df
:1001c80094020000940200009402000094020000cf
:1001d80094020000940200009402000094020000bf
:1001e80094020000940200009402000094020000af
:0801f8009402000094020000d3
:020000040000fa
:10020800940200009402000094020000940200008e
:10021800940200009402000094020000940200007e
:10022800940200009402000094020000940200006e
:10023800940200009402000094020000940200005e
:10024800b60200009402000094020000940200002c
:10025800940200009402000094020000940200003e
:10026800940200009402000094020000940200002e
:10027800940200009402000094020000940200001e
:10028800940200009402000094020000940200000e
:1002980094020000940200009402000094020000fe
:1002a80094020000940200009402000094020000ee
:1002b80094020000940200009402000094020000de
:1002c80094020000940200009402000094020000ce
:1002d80094020000940200009402000094020000be
:1002e80094020000940200009402000094020000ae
:1002f800940200009402000094020000940200009e
:1003080094020000d402000094020000940200004d
:10031800940200009402000094020000940200007d
:10032800940200009402000094020000940200006d
:10033800940200009402000094020000940200005d
:10034800940200009402000094020000940200004d
:10035800940200009402000094020000940200003d
:10036800940200009402000094020000940200002d
:10037800940200009402000094020000940200001d
:10038800940200009402000094020000940200000d
:1003980094020000940200009402000094020000fd
:1003a80094020000940200009402000094020000ed
:1003b80094020000940200009402000094020000dd
:1003c80094020000940200009402000094020000cd
:1003d80094020000940200009402000094020000bd
:1003e80094020000940200009402000094020000ad
:0803f8009402000094020000d1
:020000040000fa
:100400000f8020000e7f24000e01880000000000f5
:1004100000012000200288000c000700a03b200003
:100420000100200011000700000020000000e00093
:1004300002003200000002000000000098020200ea
:10044000000000000040da000000fe004440a90067
:10045000000020000000e000030032000000200047
:10046000a00188004440a800000006009101880017
:10047000800078000000eb0015003700e2804000ab
:1004800032a0b4009101ba00e280400032a0b40072
:100490009102ba00e280400032a0b4000002eb00fa
:1004a000472bde00f507b200602ce10004003a00a3
:1004b0000059eb008301e900fdff3e000400370016
:1004c0006128e100010032000082eb000400070017
:1004d0001101ba000200e000e8ff3a000000060047
:1004e0003159ba008301e9000c0032002159ba00e9
:1004f0008301e900080032000400e00003003a0034
:10050000e280400032a0b400f5ff370011d9ba00f4
:100510008301e900faff3a008100e800e180400031
:1005200032a0b400000006000040da000000fe0027
:020000040000fa
:100530000000fa0020000700240007005400070014
:10054000c881a900c801a800c4052000b40e880015
:10055000c8a1a900c821a800c4052000c40e8800b5
:10056000401f20002a000700ffff37003600f80078
:10057000809fbe00829fbe00849fbe00869fbe00fb
:100580000000fa006a0007008500a9000080fa0058
:100590004f03be004f02be004f01be004f00be0021
:1005a0003600f900004006000000fa008b20a90088
:1005b0000080fa00004006000000fa00f40c200061
:1005c000441688000080fa00000006000000fa00cf
:1005d00013e1a90011e1a9001061a8001021a900f0
:1005e00010c1a900840880000440a1000450a100ab
:1005f00084088800440580000400a0000410a100c5
:100600000420a100440588000080fa0000000600d4
:100610000600fa00200798008500a9009500a800b0
:100620000002eb00540888000002eb003408880048
:100630002e0290000500200056e6200006abb9000f
:10064000060378006020b9008003780007034300a8
:100650008402780054e62000042ab8000503430011
:1006600086027800048fbe001e02be00402ade0013
:100670000500200004027800740888001e0278003b
:100680006408880011e1a8000080fa00000006005c
:100690000000fa00c1e1a900ca82a800040e80008f
:1006a0000400a1000410a100040e8800040e8000c4
:1006b0000420a1000430a100040e8800040e800074
:1006c0000440a1000450a1000460a1000470a10036
:1006d000040e8800c901a800c921a800840b2000cd
:1006e000240e88000002eb00b40e88000002eb002c
:1006f000c40e8800c801a900c881a900c821a900aa
:10070000c8a1a900c1e1a8000080fa00000006000d
:100710000000fa00c8a2a9000080fa00000006004c
:100720000000fa00c8a2a8000080fa00000006003d
:100730000000fa00441680004522de00614262009b
:1007400015c0b30004c25200614262000482fb0083
:10075000610262004522dd0046168000f5fd2f0093
:100760008502630004827200441688000080fa004b
:04077000000006007f
:020000040000fa
:040774000000000081
:020000040000fa
:0200000401f009
:04000000cf0000002d
:020000040000fa
:0200000401f009
:04000400cf00000029
:020000040000fa
:0200000401f009
:0400080007000000ed
:020000040000fa
:0200000401f009
:04000c008000000070
:020000040000fa
:0200000401f009
:04001000a700000045
:020000040000fa
:0200000401f009
:040014005f00000089
:020000040000fa
:0200000401f009
:04001800f7000000ed
:020000040000fa
:0200000401f009
:04001c00dfff000002
:00000001FF
