:020000040000fa
:080000000002040000000000f2
:020000040000fa
:1000080090020000900200009002000090020000a0
:100018009002000090020000900200009002000090
:100028009002000090020000900200009002000080
:100038009002000090020000900200009002000070
:10004800060a0000900200009002000090020000e2
:10005800b20a000090020000900200009002000026
:100068009002000090020000900200009002000040
:100078009002000090020000900200009002000030
:100088009002000090020000900200009002000020
:100098009002000090020000900200009002000010
:1000a8009002000090020000900200009002000000
:1000b80090020000900200009002000090020000f0
:1000c80090020000900200009002000090020000e0
:1000d80090020000900200009002000090020000d0
:1000e80090020000900200009002000090020000c0
:1000f80090020000900200009002000090020000b0
:10010800900200004a0a0000520a00009002000013
:10011800900200009002000090020000900200008f
:10012800900200009002000090020000900200007f
:10013800900200009002000090020000900200006f
:10014800900200009002000090020000820a000065
:10015800900200009002000090020000900200004f
:10016800900200009002000090020000900200003f
:10017800900200009002000090020000900200002f
:10018800900200009002000090020000900200001f
:10019800900200009002000090020000900200000f
:1001a80090020000900200009002000090020000ff
:1001b80090020000900200009002000090020000ef
:1001c80090020000900200009002000090020000df
:1001d80090020000900200009002000090020000cf
:1001e80090020000900200009002000090020000bf
:0801f8009002000090020000db
:020000040000fa
:10020800900200009002000090020000900200009e
:10021800900200009002000090020000900200008e
:10022800900200009002000090020000900200007e
:10023800900200009002000090020000900200006e
:10024800060a0000900200009002000090020000e0
:10025800b20a000090020000900200009002000024
:10026800900200009002000090020000900200003e
:10027800900200009002000090020000900200002e
:10028800900200009002000090020000900200001e
:10029800900200009002000090020000900200000e
:1002a80090020000900200009002000090020000fe
:1002b80090020000900200009002000090020000ee
:1002c80090020000900200009002000090020000de
:1002d80090020000900200009002000090020000ce
:1002e80090020000900200009002000090020000be
:1002f80090020000900200009002000090020000ae
:10030800900200004a0a0000520a00009002000011
:10031800900200009002000090020000900200008d
:10032800900200009002000090020000900200007d
:10033800900200009002000090020000900200006d
:10034800900200009002000090020000820a000063
:10035800900200009002000090020000900200004d
:10036800900200009002000090020000900200003d
:10037800900200009002000090020000900200002d
:10038800900200009002000090020000900200001d
:10039800900200009002000090020000900200000d
:1003a80090020000900200009002000090020000fd
:1003b80090020000900200009002000090020000ed
:1003c80090020000900200009002000090020000dd
:1003d80090020000900200009002000090020000cd
:1003e80090020000900200009002000090020000bd
:0803f8009002000090020000d9
:020000040000fa
:10040000cf8320000e7f24000e0188000000000032
:100410000c000700a0c4200001002000110007000c
:10042000000020000000e000020032000000020096
:100430000000000094090200000000000040da0003
:100440000000fe004440a900000020000000e00081
:100450000300320000002000a00188004440a800f2
:100460000000060091018800800078000000eb0089
:1004700015003700e280400032a0b4009101ba00bc
:10048000e280400032a0b4009102ba00e280400055
:1004900032a0b4000002eb00472bde00f507b200eb
:1004a000602ce10004003a000059eb008301e900f0
:1004b000fdff3e00040037006128e100010032002a
:1004c0000082eb00040007001101ba000200e00006
:1004d000e8ff3a00000006003159ba008301e90044
:1004e0000c0032002159ba008301e90008003200f3
:1004f0000400e00003003a00e280400032a0b400b3
:10050000f5ff370011d9ba008301e900faff3a007c
:100510008100e800e180400032a0b4000000060045
:100520000040da000000fe0003f0a200889fbe0039
:100530008a9fbe008c1f7800c7000700ce003300e2
:100540006450e1004f0032006420e10052003200ac
:1005500003826c0007003b000905d0000306d000b1
:10056000820f54000c065d000200390002003200c8
:1005700089017800030678008582550004003d005b
:100580000003fd008103fd008502ea008b85420027
:10059000840f720002003b0060001000e080180031
:1005a0006011b8000005eb007a28e1000a0039006c
:1005b00006007800c75ddd00f707b2008780750090
:1005c0002d003700828171000a017800610560000a
:1005d0008180d1000080d3008502e900f9ff3b0053
:1005e000060440008784480002003b0060041400b9
:1005f000e0841c000988a300070032008a81710092
:1006000082817100610164008904d1000884d300f3
:100610008b05e800170037000978a30013003a00a3
:100620000b00e000130034008b05e90008044400cf
:1006300089844c000a4474000978a3000d003a0034
:100640000b00e000070034008b05e90008044400bb
:1006500089844c0001003a000b0020000978a300b7
:10066000f7ff32000001eb000200370082817100c9
:100670000a0178003d0007000cf0a70001f0a0007f
:10068000860037006420e10002003a00838f6c008e
:10069000860033000801be000200be007f00370064
:1006a000839f68000100e00002003d006000100030
:1006b000e08018000300e00002003d00600111002e
:1006c000e0811900b00007004f00e00002003b008d
:1006d00060001000e0801800000006000001be006d
:1006e000480007000470a70003f0a1006509b100ed
:1006f000160032000d0035006828e10006003500c4
:10070000f0ff2f00f1ff27000300e00013003b0083
:100710000100280000000500000040008180480022
:100720008502e900fcff3a0008003700f88f42001c
:1007300002003c008000eb00000005008100d100b9
:100740000080d3008502e800fcff3a000300e000cf
:1007500002003b0060001000e0801800000006006e
:100760004f89de0082017800970037008100200069
:10077000618055000b003d000b00200061fe2f0042
:100780000100e1001d0034008281710061016400fc
:100790008904d1000884d3000000e800faff3a0081
:1007a000710020006100640003007000020060001e
:1007b0000900320061044400e0844c000988a5006f
:1007c000050032008b05e8006808e10002003a00ed
:1007d0008904d1000884d300f20f20000258e10000
:1007e00005003d00c75ddd00f907b2008980750096
:1007f00008007800000006000bf827008b00780046
:1008000000000500c70ade00f107b200f50fb200d4
:1008100008003200e1cf4200020032000170a00067
:1008200024000500810f700001003200040805005b
:1008300044000500810f700002003a00140005001a
:100840008502e9000000400081c04800fcff3b0039
:100850000170a000240005000004be00e9ff0700ad
:100860000003be000405be000200be00e5ff070055
:10087000844f7500000006000200be006450e100d5
:10088000050036006420e100020036000968a3007c
:1008900001003a000800be000160a0004f06780089
:1008a0004f05be004f04be0000000600f0ff2f0001
:1008b000f1ff2700f9ff3700889fbe008a9fbe0026
:1008c0008c1f7800e4ff0700ebff330003866c0009
:1008d0006450e100240032006420e100270032006f
:1008e0006150e100220032006120e100210032006d
:1008f0008b854200eb07b1000134b800003ab80024
:100900000804420089844a00013ab8000030b80067
:100910008880400009014a000400330000004000c4
:1009200081804800020149008b05e900c909dd000a
:10093000830170000100320013002000c814de00a3
:100940004814dd004709de001200b200c808de00ce
:100950000884700085ff070001f0a1000cf0a700db
:1009600001f0a000cdff37006120e100cfff320091
:100970000801be000200be00f7ff37006150e10031
:10098000fcff3a00c9ff37006022b80006022000d1
:100990000000d0008180d2000482d2008582d20083
:1009a0000000a0000202520083825a0003003100be
:1009b0000202420083824a000000a1000603e9000f
:1009c000f3ff3a0000000600881f78000304780057
:1009d0000300e00007003d0060001000e080180008
:1009e00060011900e081190002003b0001f02d00b8
:1009f000030037000400070008f0a70001f0a00082
:100a00004f04780000000600889fbe008a9fbe0049
:100a1000008270000402710004827100260032001e
:100a20000004be000200be006011b8006b09200087
:100a3000950220000182cf000a0039000541b10073
:100a40000082cf00070039000541b1000982cf00c4
:100a5000040039000541b1000882cf0001003900cf
:100a60000541b10005425200120032000a003b006d
:100a700082817100610164008100d1000080d30097
:100a80008984d3000884d3008b05e8000442e80081
:100a9000f7ff3a00070037000804440089844c003f
:100aa00000004800818048008b05e9000442e9000d
:100ab000f9ff3a002dff07004f05be004f04be00ae
:040ac000000006002c
:020000040000fa
:100ac4000000fa00c1e1a900ca82a800010e80005a
:100ad400c0ff2f0000806000000e8800010e80001f
:100ae40030ff2f0000806000000e8800010e80009f
:100af400f0f02f0000806000000e8800c901a800fb
:100b0400c921a800700b2000200e88000000eb0013
:100b1400b00e88000000eb00c00e8800c801a900d8
:100b2400c881a900c821a900c8a1a900c1e1a800e1
:100b34000080fa00000006000c00fa00300798005c
:100b440041079800224f98002e489000e14f500032
:100b540065003a003e009000e00f500005003a00a6
:100b6400c801a900c881a9000000eb001007980083
:100b74002a0037003e009000e00f500010003400bf
:100b8400c801a800c881a900be0090000017200079
:100b9400808f5000050034000017200010079800d3
:100ba40040c0b300004f78001c0037003e009000a6
:100bb400100798000040eb00004f78001700370042
:100bc4003e009000e00f500012003d00c801a90053
:100bd400c881a8003e0090008000ea0000172000b1
:100be400808f500005003400001720001007980083
:100bf40050c0b300004f7800080037003e0090005a
:100c04000000ea00100798000040eb00004f780055
:100c140002003700d0c9b300004f78004e009000a6
:100c2400e00f500005003a00c821a900c8a1a9009e
:100c34000000eb0020079800cd0037004e00900024
:100c4400e00f500010003400c821a800c8a1a9007a
:100c5400ce00900000172000808f50000500340063
:100c6400001720002007980060c0b300004f7800f0
:100c7400bf0037004e009000200798000040eb00b2
:100c8400004f7800ba0037004e009000e00f50008b
:100c940012003d00c821a900c8a1a8004e00900080
:100ca4008000ea0000172000808f50000500340007
:100cb400001720002007980070c0b300004f780090
:100cc400ab0037004e0090000000ea0020079800b7
:100cd4000040eb00004f7800a5003700d0c9b300f6
:100ce400004f7800a20037002e489000e24f5000d9
:100cf4009d003a003e009000e00f500005003a00cd
:100d0400c801a900c881a9000000eb0010079800e1
:100d1400460037003e009000e00f50001e003400f3
:100d2400c801a800c881a900be009000803e200030
:100d3400808f500005003400001720001007980031
:100d440040c0b300004f7800380037003e009000e8
:100d5400cf80de00021720000289b900020178006a
:100d64006002b900840178000301410003172000e8
:100d74000300b8000101410082007800823e200097
:100d84000300200045fe0700100798000040eb0018
:100d9400004f7800250037003e009000e00f50001f
:100da40020003d00c801a900c881a8003e009000b1
:100db4008000ea00803e2000808f5000050034004f
:100dc400001720001007980050c0b300004f7800af
:100dd400160037003e009000cf80de0002e92f00ad
:100de4000289b900020178008081eb000382b90016
:100df400840178000301410003e92f000300b800d7
:100e04000101410082007800823e2000030020009e
:100e140022fe0700100798000040eb00004f780006
:100e240002003700d0c9b300004f78004e00900094
:100e3400e00f500005003a00c821a900c8a1a9008c
:100e44000000eb0020079800490037004e00900096
:100e5400e00f50001e003400c821a800c8a1a9005a
:100e6400ce009000803e2000808f500005003400aa
:100e7400001720002007980060c0b300004f7800de
:100e84003b0037004e009000cf80de0002172000a8
:100e94000289b900020178006002b9008401780077
:100ea40003014100031720000300b80001014100c1
:100eb40082007800823e200003002000f7fd070036
:100ec400200798000040eb00004f7800280037000e
:100ed4004e009000e00f500020003d00c821a90002
:100ee400c8a1a8004e0090008000ea00803e2000c7
:100ef400808f500005003400001720002007980060
:100f040070c0b300004f7800190037004e00900005
:100f1400cf80de0002e92f000289b90002017800c7
:100f24008081eb000382b900840178000301410051
:100f340003e92f000300b80001014100820078009a
:100f4400823e200003002000d4fd07002007980003
:100f54000040eb00004f780005003700d0c9b30013
:100f6400004f78000200370030c0b300004f780013
:100f74001e407800e34f5000040032001e00900031
:100f8400b00e88002e009000c00e88001e4078002d
:100f94000080fa00000006000000fa00c801a90061
:100fa400c881a900c821a900c8a1a9000000eb00bc
:100fb400b00e88000000eb00c00e88000080fa002c
:100fc400000006001400fa00b0408000c140800018
:100fd40061004000e0804800b0408800c1408800c3
:100fe4003240800043408000104080002140800057
:100ff40002004000838048004f09de000300200007
:1010040002004000838048008180d1000080d3002a
:10101400008fbe00a10f8000200f800000804000e0
:101024000000d1000100200020079800310798003b
:101034003240800043408000104080002140800006
:101044000000510081805900025a20000289b90031
:10105400020178006002b9008401780003014100b4
:10106400035a20000300b800010141008200780007
:10107400a20f80000300200000014100818149008b
:10108400200f8000010020000000510081805900e1
:101094007509b900020178006002b9008401780082
:1010a40003014100530120000300b8000101410085
:1010b4008200780040079800510798004007980084
:1010c400510798004e009000de00900070418800a7
:1010d40081418800b2408000c3408000703e2000ff
:1010e40001002000800f5100818f5900200036003c
:1010f40070418000814180003a0107001000200007
:10110400900107006000b800b0408800c14088002a
:1011140090418000a1418000600798007107980009
:1011240080252000000f98006e019000fe019000c1
:101134004e009000de0090000000510081805900b4
:1011440086fd0700d2cc2c00c3dc2300d9fd0700a8
:101154006011b800f4fc07005ffd0700100f980051
:101164004e009000de009000b0418800c14188002c
:10117400e1408000d040800022c0b3006efe070032
:1011840010c0b3000080fa00000006000000fa005e
:10119400010f8000f08f2f0000806000000f880096
:1011a400810f8000f08f2f0000806000800f880086
:1011b400e134800000fe2f0000806000a000b30036
:1011c400e0348800e1348000f00f2e00808060005d
:1011d40000b0200000807000e034880001358000f9
:1011e40000fe2f00008060007000b300003588000e
:1011f40001358000f00f2e00808060000060200028
:101204000080700000358800110f8000f0f82f0076
:10121400808060000003200000807000100f8800b0
:10122400910f8000f0f82f00808060000003200000
:1012340000807000900f8800e301a800f301a8006b
:10124400e2e1a800f2e1a800f0592000300f880084
:10125400f0592000b00f88000000eb00200f880038
:101264000000eb00a00f88009b40a8009d60a80030
:10127400010f80000070200000807000000f8800c3
:10128400810f80000070200000807000800f8800b3
:101294000080fa00000006000000fa006000b800b8
:1012a40010408800214088006000b8003040880069
:1012b400414088000080fa00000006000400fa00a3
:1012c400000f7800110798001e007800e00f50000e
:1012d40001003d000000ea00800078001e0090003c
:1012e400e00f500001003d000000ea00808f500034
:1012f400090035001e0090001e001000e90f500088
:10130400030034001e0090006a0040000300370010
:101314001e007800010037000000eb000080fa0096
:10132400000006000000fa004e010700daff070083
:101334001c010700e2fd070094ff07008c00070072
:101344000040eb0012e8b7000040eb0013e8b700e0
:10135400903e200001002000b0408800c140880079
:101364000000eb00d04088000000eb00e040880063
:101374006000b80010408800214088006000b80078
:1013840030408800414088000040eb0014e8b7007a
:101394006000b800b0418800c14188006000b80016
:1013a400704188008141880010002000e50007009a
:1013b4006000b80090418800a141880010c0b300cb
:1013c40014e8b7000b003700fefe0700ed4f500095
:1013d40008003a0014c8bf00e04f50000500320076
:1013e4000040eb0014e8b700ebfe070010c0b300a8
:1013f40013e8b70013c8bf00e04f5000f2ff3200fb
:10140400e5fe0700ffff37003600f800809fbe00ae
:10141400829fbe00849fbe00869fbe000000fa002b
:1014240000c8bf00e24f500003003a00a6000700c6
:101434008500a9000f00370000c8bf00e34f50002b
:1014440004003a000040eb0012e8b7008500a90050
:101454000800370000c8bf00e44f500004003a0001
:1014640010c0b30013e8b7008500a90001003700dd
:101474008500a9000080fa004f03be004f02be00a1
:101484004f01be004f00be003600f90000400600c8
:101494000000fa008b20a9000080fa00004006003a
:1014a400809fbe000000fa008b40a900010f80005d
:1014b4000080200000806000e00f50000700320030
:1014c400104080002140800061004000e08048001e
:1014d400104088002140880006003700104080003a
:1014e4002140800061005000e080580010408800d6
:1014f400214088000080fa004f00be000040060032
:10150400809fbe000000fa008d60a900810f80005a
:101514000080200000806000e00f500007003200cf
:10152400304080004140800061004000e08048007d
:101534003040880041408800060037003040800079
:101544004140800061005000e08058003040880035
:10155400414088000080fa004f00be0000400600b1
:101564000000fa008580a9000080fa00004006000f
:101574000000fa002ca3a8001136800000fe2f0002
:10158400008060003000b3001036880021358000f0
:1015940000fe2f00008060003000b300203588007a
:1015a400100020004011880023e2a90023a2a90012
:1015b4009580a80021e2a8002342a8000080fa0038
:1015c400000006000200fa00004f78009e407800f8
:1015d4000180fb00201188000000eb000080fa006d
:1015e400000006000400fa00008fbe001e00be00ca
:1015f4004888de00cf80de0000407800f1ff07005d
:10160400e00f5000020032000000eb00240037001d
:10161400200020003d0007001e00be004088de00c0
:10162400cf80de0000407800e6ff0700e00f5000a6
:1016340002003200100020001900370020002000b2
:10164400320007001e00be004809dd004800de002d
:1016540000007100c888de0000407800d9ff070050
:10166400e00f500002003200200020000c00370080
:1016740020002000250007001e00780000407800ac
:10168400d0ff0700e00f50000200320030002000bd
:1016940003003700200020001c0007004000200049
:1016a4000080fa00000006000000fa00c8a2a900a9
:1016b4000080fa00000006000000fa00c8a2a8009a
:1016c4000080fa00000006000000fa0040168000c6
:1016d4004500de006140600011c0b30000c050004e
:1016e400614060000080fb00610060004500dd0097
:1016f40042168000f1fd2f0081006100008070001f
:10170400401688000080fa00000006000200fa007b
:10171400000f780010c0b30012e8b70030c0b30067
:1017240000e8b7001e0078002f000700000000004a
:1017340012c8bf00e14f5000fdff32000080fa00e4
:10174400000006000400fa00100798000000eb00f7
:10175400000f780003003700803e2000ebff0700f5
:101764001e0fe8001e0090009e007800808f50003d
:10177400f9ff39000080fa00000006000200fa00b8
:10178400000f78001e007800e00f500002003d00ba
:101794001e00ea00010037001e0078000080fa00f5
:1017a400000006000000fa0013e1a90011e1a900fd
:1017b4001061a8001021a90010c1a90081088000af
:1017c400f0fc2f0000806000800888004105800044
:1017d40080ff2f00008060000000a000400588000a
:1017e4000080fa00000006000600fa0020079800b6
:1017f4008500a9009500a8000000eb0050088800af
:101804000000eb00300888002e009000010020004a
:1018140052e620000289b900020178006002b90092
:10182400840178000301410053e620000300b8005e
:101834000101410082007800008fbe001e00be003e
:101844004008de00010020000000780070088800d5
:101854001e0078006008880011e1a8000080fa00ea
:10186400000006000000fa00f00c2000401688007a
:10187400c942a800c962a8000080fa00000006005e
:101884000200fa00004f78000080fa000000060011
:020000040000fa
:10189400000800003c000000000000000000000000
:020000040000fa
:0200000401f009
:04000000cf0000002d
:020000040000fa
:0200000401f009
:04000400cf00000029
:020000040000fa
:0200000401f009
:0400080007000000ed
:020000040000fa
:0200000401f009
:04000c008000000070
:020000040000fa
:0200000401f009
:04001000a700000045
:020000040000fa
:0200000401f009
:040014005f00000089
:020000040000fa
:0200000401f009
:04001800f7000000ed
:020000040000fa
:0200000401f009
:04001c00dfff000002
:00000001FF
